{
  "address": "0x5220f82ff98daaf8A68d5EF002Ff077CDccf2507",
  "abi": [
    {
      "inputs": [
        {
          "internalType": "address",
          "name": "priceFeedAddress",
          "type": "address"
        }
      ],
      "stateMutability": "nonpayable",
      "type": "constructor"
    },
    {
      "inputs": [],
      "name": "NotOwner",
      "type": "error"
    },
    {
      "stateMutability": "payable",
      "type": "fallback"
    },
    {
      "inputs": [
        {
          "internalType": "address",
          "name": "",
          "type": "address"
        }
      ],
      "name": "addressToAmountFunded",
      "outputs": [
        {
          "internalType": "uint256",
          "name": "",
          "type": "uint256"
        }
      ],
      "stateMutability": "view",
      "type": "function"
    },
    {
      "inputs": [],
      "name": "fund",
      "outputs": [],
      "stateMutability": "payable",
      "type": "function"
    },
    {
      "inputs": [
        {
          "internalType": "uint256",
          "name": "",
          "type": "uint256"
        }
      ],
      "name": "funders",
      "outputs": [
        {
          "internalType": "address",
          "name": "",
          "type": "address"
        }
      ],
      "stateMutability": "view",
      "type": "function"
    },
    {
      "inputs": [],
      "name": "i_ownerAddress",
      "outputs": [
        {
          "internalType": "address",
          "name": "",
          "type": "address"
        }
      ],
      "stateMutability": "view",
      "type": "function"
    },
    {
      "inputs": [],
      "name": "priceFeed",
      "outputs": [
        {
          "internalType": "contract AggregatorV3Interface",
          "name": "",
          "type": "address"
        }
      ],
      "stateMutability": "view",
      "type": "function"
    },
    {
      "inputs": [],
      "name": "withdrawn",
      "outputs": [],
      "stateMutability": "nonpayable",
      "type": "function"
    },
    {
      "stateMutability": "payable",
      "type": "receive"
    }
  ],
  "transactionHash": "0x9af522c43ece1ead047204dafcbdfd234ef3f88d40d75ae9ec5437abd4c11da1",
  "args": [
    "0x694AA1769357215DE4FAC081bf1f309aDC325306"
  ],
  "numDeployments": 1,
  "solcInputHash": "d3ef6fa0981d20ee9092cf855075bba9",
  "bytecode": "0x60a060405234801561001057600080fd5b50604051610f75380380610f7583398181016040528101906100329190610113565b3373ffffffffffffffffffffffffffffffffffffffff1660808173ffffffffffffffffffffffffffffffffffffffff1660601b8152505080600260006101000a81548173ffffffffffffffffffffffffffffffffffffffff021916908373ffffffffffffffffffffffffffffffffffffffff16021790555050610140565b600080fd5b600073ffffffffffffffffffffffffffffffffffffffff82169050919050565b60006100e0826100b5565b9050919050565b6100f0816100d5565b81146100fb57600080fd5b50565b60008151905061010d816100e7565b92915050565b600060208284031215610129576101286100b0565b5b6000610137848285016100fe565b91505092915050565b60805160601c610e10610165600039600081816102b801526103020152610e106000f3fe6080604052600436106100595760003560e01c80633e47d6f3146100725780634555aab8146100af578063741bef1a146100da578063b60d428814610105578063c80ec5221461010f578063dc0d3dff1461012657610068565b3661006857610066610163565b005b610070610163565b005b34801561007e57600080fd5b5061009960048036038101906100949190610748565b61029e565b6040516100a6919061078e565b60405180910390f35b3480156100bb57600080fd5b506100c46102b6565b6040516100d191906107b8565b60405180910390f35b3480156100e657600080fd5b506100ef6102da565b6040516100fc9190610832565b60405180910390f35b61010d610163565b005b34801561011b57600080fd5b50610124610300565b005b34801561013257600080fd5b5061014d60048036038101906101489190610879565b61053a565b60405161015a91906107b8565b60405180910390f35b6802b5e3af16b18800006101a2600260009054906101000a900473ffffffffffffffffffffffffffffffffffffffff163461057990919063ffffffff16565b10156101e3576040517f08c379a00000000000000000000000000000000000000000000000000000000081526004016101da90610903565b60405180910390fd5b6000339080600181540180825580915050600190039060005260206000200160009091909190916101000a81548173ffffffffffffffffffffffffffffffffffffffff021916908373ffffffffffffffffffffffffffffffffffffffff16021790555034600160003373ffffffffffffffffffffffffffffffffffffffff1673ffffffffffffffffffffffffffffffffffffffff16815260200190815260200160002060008282546102959190610952565b92505081905550565b60016020528060005260406000206000915090505481565b7f000000000000000000000000000000000000000000000000000000000000000081565b600260009054906101000a900473ffffffffffffffffffffffffffffffffffffffff1681565b7f000000000000000000000000000000000000000000000000000000000000000073ffffffffffffffffffffffffffffffffffffffff163373ffffffffffffffffffffffffffffffffffffffff1614610385576040517f30cd747100000000000000000000000000000000000000000000000000000000815260040160405180910390fd5b60005b60008054905081101561042a576000600160008084815481106103ae576103ad6109a8565b5b9060005260206000200160009054906101000a900473ffffffffffffffffffffffffffffffffffffffff1673ffffffffffffffffffffffffffffffffffffffff1673ffffffffffffffffffffffffffffffffffffffff168152602001908152602001600020819055508080610422906109d7565b915050610388565b50600067ffffffffffffffff81111561044657610445610a20565b5b6040519080825280602002602001820160405280156104745781602001602082028036833780820191505090505b506000908051906020019061048a92919061063e565b5060003373ffffffffffffffffffffffffffffffffffffffff16476040516104b190610a80565b60006040518083038185875af1925050503d80600081146104ee576040519150601f19603f3d011682016040523d82523d6000602084013e6104f3565b606091505b5050905080610537576040517f08c379a000000000000000000000000000000000000000000000000000000000815260040161052e90610ae1565b60405180910390fd5b50565b6000818154811061054a57600080fd5b906000526020600020016000915054906101000a900473ffffffffffffffffffffffffffffffffffffffff1681565b6000808273ffffffffffffffffffffffffffffffffffffffff1663feaf968c6040518163ffffffff1660e01b815260040160a06040518083038186803b1580156105c257600080fd5b505afa1580156105d6573d6000803e3d6000fd5b505050506040513d601f19601f820116820180604052508101906105fa9190610b8e565b5050509150506000670de0b6b3a7640000856402540be4008461061d9190610c09565b6106279190610d20565b6106319190610da9565b9050809250505092915050565b8280548282559060005260206000209081019282156106b7579160200282015b828111156106b65782518260006101000a81548173ffffffffffffffffffffffffffffffffffffffff021916908373ffffffffffffffffffffffffffffffffffffffff1602179055509160200191906001019061065e565b5b5090506106c491906106c8565b5090565b5b808211156106e15760008160009055506001016106c9565b5090565b600080fd5b600073ffffffffffffffffffffffffffffffffffffffff82169050919050565b6000610715826106ea565b9050919050565b6107258161070a565b811461073057600080fd5b50565b6000813590506107428161071c565b92915050565b60006020828403121561075e5761075d6106e5565b5b600061076c84828501610733565b91505092915050565b6000819050919050565b61078881610775565b82525050565b60006020820190506107a3600083018461077f565b92915050565b6107b28161070a565b82525050565b60006020820190506107cd60008301846107a9565b92915050565b6000819050919050565b60006107f86107f36107ee846106ea565b6107d3565b6106ea565b9050919050565b600061080a826107dd565b9050919050565b600061081c826107ff565b9050919050565b61082c81610811565b82525050565b60006020820190506108476000830184610823565b92915050565b61085681610775565b811461086157600080fd5b50565b6000813590506108738161084d565b92915050565b60006020828403121561088f5761088e6106e5565b5b600061089d84828501610864565b91505092915050565b600082825260208201905092915050565b7f4469646e27742073656e6420656e6f7567682e00000000000000000000000000600082015250565b60006108ed6013836108a6565b91506108f8826108b7565b602082019050919050565b6000602082019050818103600083015261091c816108e0565b9050919050565b7f4e487b7100000000000000000000000000000000000000000000000000000000600052601160045260246000fd5b600061095d82610775565b915061096883610775565b9250827fffffffffffffffffffffffffffffffffffffffffffffffffffffffffffffffff0382111561099d5761099c610923565b5b828201905092915050565b7f4e487b7100000000000000000000000000000000000000000000000000000000600052603260045260246000fd5b60006109e282610775565b91507fffffffffffffffffffffffffffffffffffffffffffffffffffffffffffffffff821415610a1557610a14610923565b5b600182019050919050565b7f4e487b7100000000000000000000000000000000000000000000000000000000600052604160045260246000fd5b600081905092915050565b50565b6000610a6a600083610a4f565b9150610a7582610a5a565b600082019050919050565b6000610a8b82610a5d565b9150819050919050565b7f43616c6c206661696c6564000000000000000000000000000000000000000000600082015250565b6000610acb600b836108a6565b9150610ad682610a95565b602082019050919050565b60006020820190508181036000830152610afa81610abe565b9050919050565b600069ffffffffffffffffffff82169050919050565b610b2081610b01565b8114610b2b57600080fd5b50565b600081519050610b3d81610b17565b92915050565b6000819050919050565b610b5681610b43565b8114610b6157600080fd5b50565b600081519050610b7381610b4d565b92915050565b600081519050610b888161084d565b92915050565b600080600080600060a08688031215610baa57610ba96106e5565b5b6000610bb888828901610b2e565b9550506020610bc988828901610b64565b9450506040610bda88828901610b79565b9350506060610beb88828901610b79565b9250506080610bfc88828901610b2e565b9150509295509295909350565b6000610c1482610b43565b9150610c1f83610b43565b9250827f7fffffffffffffffffffffffffffffffffffffffffffffffffffffffffffffff0482116000841360008413161615610c5e57610c5d610923565b5b817f80000000000000000000000000000000000000000000000000000000000000000583126000841260008413161615610c9b57610c9a610923565b5b827f80000000000000000000000000000000000000000000000000000000000000000582126000841360008412161615610cd857610cd7610923565b5b827f7fffffffffffffffffffffffffffffffffffffffffffffffffffffffffffffff0582126000841260008412161615610d1557610d14610923565b5b828202905092915050565b6000610d2b82610775565b9150610d3683610775565b9250817fffffffffffffffffffffffffffffffffffffffffffffffffffffffffffffffff0483118215151615610d6f57610d6e610923565b5b828202905092915050565b7f4e487b7100000000000000000000000000000000000000000000000000000000600052601260045260246000fd5b6000610db482610775565b9150610dbf83610775565b925082610dcf57610dce610d7a565b5b82820490509291505056fea2646970667358221220469eb25e198e776bc56b4e5fa430000da62bf3c7f232785dbc86c610809a775064736f6c63430008080033",
  "devdoc": {
    "kind": "dev",
    "methods": {},
    "version": 1
  },
  "userdoc": {
    "kind": "user",
    "methods": {},
    "version": 1
  },
  "storageLayout": {
    "storage": [
      {
        "astId": 61,
        "contract": "contracts/FundMe.sol:FundMe",
        "label": "funders",
        "offset": 0,
        "slot": "0",
        "type": "t_array(t_address)dyn_storage"
      },
      {
        "astId": 65,
        "contract": "contracts/FundMe.sol:FundMe",
        "label": "addressToAmountFunded",
        "offset": 0,
        "slot": "1",
        "type": "t_mapping(t_address,t_uint256)"
      },
      {
        "astId": 70,
        "contract": "contracts/FundMe.sol:FundMe",
        "label": "priceFeed",
        "offset": 0,
        "slot": "2",
        "type": "t_contract(AggregatorV3Interface)45"
      }
    ],
    "types": {
      "t_address": {
        "encoding": "inplace",
        "label": "address",
        "numberOfBytes": "20"
      },
      "t_array(t_address)dyn_storage": {
        "base": "t_address",
        "encoding": "dynamic_array",
        "label": "address[]",
        "numberOfBytes": "32"
      },
      "t_contract(AggregatorV3Interface)45": {
        "encoding": "inplace",
        "label": "contract AggregatorV3Interface",
        "numberOfBytes": "20"
      },
      "t_mapping(t_address,t_uint256)": {
        "encoding": "mapping",
        "key": "t_address",
        "label": "mapping(address => uint256)",
        "numberOfBytes": "32",
        "value": "t_uint256"
      },
      "t_uint256": {
        "encoding": "inplace",
        "label": "uint256",
        "numberOfBytes": "32"
      }
    }
  }
}